{
  "contractName": "CoinMarketOracle",
  "abi": [
    {
      "constant": true,
      "inputs": [],
      "name": "owner",
      "outputs": [
        {
          "name": "",
          "type": "address"
        }
      ],
      "payable": false,
      "stateMutability": "view",
      "type": "function"
    },
    {
      "inputs": [],
      "payable": false,
      "stateMutability": "nonpayable",
      "type": "constructor"
    },
    {
      "anonymous": false,
      "inputs": [
        {
          "indexed": false,
          "name": "requestBy",
          "type": "address"
        },
        {
          "indexed": false,
          "name": "capId",
          "type": "uint256"
        }
      ],
      "name": "CoinMarketUpdateRequest",
      "type": "event"
    },
    {
      "constant": true,
      "inputs": [],
      "name": "getStatus",
      "outputs": [
        {
          "name": "",
          "type": "bool"
        }
      ],
      "payable": false,
      "stateMutability": "view",
      "type": "function"
    },
    {
      "constant": false,
      "inputs": [],
      "name": "setOnline",
      "outputs": [],
      "payable": false,
      "stateMutability": "nonpayable",
      "type": "function"
    },
    {
      "constant": false,
      "inputs": [],
      "name": "setOffline",
      "outputs": [],
      "payable": false,
      "stateMutability": "nonpayable",
      "type": "function"
    },
    {
      "constant": false,
      "inputs": [
        {
          "name": "capId",
          "type": "uint256"
        },
        {
          "name": "capValue",
          "type": "uint256"
        }
      ],
      "name": "setCapValue",
      "outputs": [],
      "payable": false,
      "stateMutability": "nonpayable",
      "type": "function"
    },
    {
      "constant": true,
      "inputs": [
        {
          "name": "capId",
          "type": "uint256"
        }
      ],
      "name": "getCapVaule",
      "outputs": [
        {
          "name": "",
          "type": "uint256"
        }
      ],
      "payable": false,
      "stateMutability": "view",
      "type": "function"
    },
    {
      "constant": false,
      "inputs": [
        {
          "name": "capId",
          "type": "uint256"
        }
      ],
      "name": "updateCoinMarket",
      "outputs": [],
      "payable": false,
      "stateMutability": "nonpayable",
      "type": "function"
    }
  ],
  "bytecode": "0x608060405234801561001057600080fd5b50336000806101000a81548173ffffffffffffffffffffffffffffffffffffffff021916908373ffffffffffffffffffffffffffffffffffffffff1602179055506001600060146101000a81548160ff02191690831515021790555061054f8061007b6000396000f300608060405260043610610083576000357c0100000000000000000000000000000000000000000000000000000000900463ffffffff1680634e69d5601461008857806373df91e8146100b75780638da5cb5b146100ce57806399ee780b146101255780639d74f5511461013c578063cfaf95cc14610173578063d5ec3877146101a0575b600080fd5b34801561009457600080fd5b5061009d6101e1565b604051808215151515815260200191505060405180910390f35b3480156100c357600080fd5b506100cc6101f7565b005b3480156100da57600080fd5b506100e361026e565b604051808273ffffffffffffffffffffffffffffffffffffffff1673ffffffffffffffffffffffffffffffffffffffff16815260200191505060405180910390f35b34801561013157600080fd5b5061013a610293565b005b34801561014857600080fd5b50610171600480360381019080803590602001909291908035906020019092919050505061030b565b005b34801561017f57600080fd5b5061019e6004803603810190808035906020019092919050505061040d565b005b3480156101ac57600080fd5b506101cb6004803603810190808035906020019092919050505061047b565b6040518082815260200191505060405180910390f35b60008060149054906101000a900460ff16905090565b6000809054906101000a900473ffffffffffffffffffffffffffffffffffffffff1673ffffffffffffffffffffffffffffffffffffffff163373ffffffffffffffffffffffffffffffffffffffff1614151561025257600080fd5b60008060146101000a81548160ff021916908315150217905550565b6000809054906101000a900473ffffffffffffffffffffffffffffffffffffffff1681565b6000809054906101000a900473ffffffffffffffffffffffffffffffffffffffff1673ffffffffffffffffffffffffffffffffffffffff163373ffffffffffffffffffffffffffffffffffffffff161415156102ee57600080fd5b6001600060146101000a81548160ff021916908315150217905550565b6000809054906101000a900473ffffffffffffffffffffffffffffffffffffffff1673ffffffffffffffffffffffffffffffffffffffff163373ffffffffffffffffffffffffffffffffffffffff1614151561036657600080fd5b60011515600060149054906101000a900460ff1615151415156103f1576040517f08c379a000000000000000000000000000000000000000000000000000000000815260040180806020018281038252601c8152602001807f4f7261636c652069732063757272656e746c79206f66666c696e65210000000081525060200191505060405180910390fd5b8060016000848152602001908152602001600020819055505050565b7f4e706413d2040a71aaa4d6f4811cb20f96c79fc37c7ab3a5da350f9502ac49353382604051808373ffffffffffffffffffffffffffffffffffffffff1673ffffffffffffffffffffffffffffffffffffffff1681526020018281526020019250505060405180910390a150565b600060011515600060149054906101000a900460ff161515141515610508576040517f08c379a000000000000000000000000000000000000000000000000000000000815260040180806020018281038252601c8152602001807f4f7261636c652069732063757272656e746c79206f66666c696e65210000000081525060200191505060405180910390fd5b600160008381526020019081526020016000205490509190505600a165627a7a72305820e764561792fbb9182d39ce11f3b5c54ec7b9168da5ce81a92c5a15bce51b00700029",
  "source": "pragma solidity ^0.4.24;\n\ncontract CoinMarketOracle {\n\n  address public owner;\n  bool internal online;\n\n  mapping (uint => uint ) private CoinMarketCap;\n\n  modifier onlyOwner(){\n    require(msg.sender == owner);\n    _;\n  }\n\n  modifier isOnline() {\n    require(online == true, 'Oracle is currently offline!');\n    _;\n  }\n\n  event CoinMarketUpdateRequest(address requestBy, uint capId);\n\n  constructor() public {\n      owner = msg.sender;\n      online = true;\n  }\n\n  function getStatus() public view returns(bool) {\n      return online;\n  }\n  function setOnline() public onlyOwner {\n      online = true;\n  }\n\n  function setOffline() public onlyOwner {\n      online = false;\n  }\n\n\n  function setCapValue(uint capId, uint capValue) public onlyOwner isOnline {\n    CoinMarketCap[capId] = capValue;\n  }\n\n  function getCapVaule(uint capId) public view isOnline returns (uint) {\n    return CoinMarketCap[capId];\n  }\n\n  function updateCoinMarket(uint capId) public {\n    // emit update request event\n    emit CoinMarketUpdateRequest(msg.sender,capId);\n\n  }  \n\n}\n",
  "sourcePath": "/Users/jamshed/Development/gbc/ADVANCED SMART CONTRACTS - BCDV 1013 - 100/gbc_bcdv1013_asc_finalassignment/contracts/CoinMarketOracle.sol",
  "compiler": {
    "name": "solc",
    "version": "0.4.24+commit.e67f0147.Emscripten.clang"
  },
  "schemaVersion": "3.0.23",
  "updatedAt": "2020-03-30T02:00:57.666Z",
  "networkType": "ethereum",
  "devdoc": {
    "methods": {}
  },
  "userdoc": {
    "methods": {}
  }
}