{
  "contractName": "CoinMarketOracle",
  "abi": [
    {
      "constant": true,
      "inputs": [],
      "name": "_owner",
      "outputs": [
        {
          "name": "",
          "type": "address"
        }
      ],
      "payable": false,
      "stateMutability": "view",
      "type": "function"
    },
    {
      "inputs": [],
      "payable": false,
      "stateMutability": "nonpayable",
      "type": "constructor"
    },
    {
      "anonymous": false,
      "inputs": [
        {
          "indexed": false,
          "name": "requestBy",
          "type": "address"
        },
        {
          "indexed": false,
          "name": "capId",
          "type": "uint256"
        }
      ],
      "name": "CoinMarketUpdateRequest",
      "type": "event"
    },
    {
      "constant": true,
      "inputs": [],
      "name": "getStatus",
      "outputs": [
        {
          "name": "",
          "type": "bool"
        }
      ],
      "payable": false,
      "stateMutability": "view",
      "type": "function"
    },
    {
      "constant": false,
      "inputs": [],
      "name": "setOnline",
      "outputs": [],
      "payable": false,
      "stateMutability": "nonpayable",
      "type": "function"
    },
    {
      "constant": false,
      "inputs": [],
      "name": "setOffline",
      "outputs": [],
      "payable": false,
      "stateMutability": "nonpayable",
      "type": "function"
    },
    {
      "constant": false,
      "inputs": [
        {
          "name": "capId",
          "type": "uint256"
        },
        {
          "name": "capValue",
          "type": "uint256"
        }
      ],
      "name": "setCapValue",
      "outputs": [],
      "payable": false,
      "stateMutability": "nonpayable",
      "type": "function"
    },
    {
      "constant": true,
      "inputs": [
        {
          "name": "capId",
          "type": "uint256"
        }
      ],
      "name": "getCapVaule",
      "outputs": [
        {
          "name": "",
          "type": "uint256"
        }
      ],
      "payable": false,
      "stateMutability": "view",
      "type": "function"
    },
    {
      "constant": false,
      "inputs": [
        {
          "name": "capId",
          "type": "uint256"
        }
      ],
      "name": "updateCoinMarket",
      "outputs": [
        {
          "name": "",
          "type": "bool"
        }
      ],
      "payable": false,
      "stateMutability": "nonpayable",
      "type": "function"
    }
  ],
  "bytecode": "0x608060405234801561001057600080fd5b50336000806101000a81548173ffffffffffffffffffffffffffffffffffffffff021916908373ffffffffffffffffffffffffffffffffffffffff1602179055506001600060146101000a81548160ff0219169083151502179055506107188061007b6000396000f300608060405260043610610083576000357c0100000000000000000000000000000000000000000000000000000000900463ffffffff1680634e69d5601461008857806373df91e8146100b757806399ee780b146100ce5780639d74f551146100e5578063b2bdfa7b1461011c578063cfaf95cc14610173578063d5ec3877146101b8575b600080fd5b34801561009457600080fd5b5061009d6101f9565b604051808215151515815260200191505060405180910390f35b3480156100c357600080fd5b506100cc61020f565b005b3480156100da57600080fd5b506100e3610315565b005b3480156100f157600080fd5b5061011a600480360381019080803590602001909291908035906020019092919050505061041c565b005b34801561012857600080fd5b506101316105ad565b604051808273ffffffffffffffffffffffffffffffffffffffff1673ffffffffffffffffffffffffffffffffffffffff16815260200191505060405180910390f35b34801561017f57600080fd5b5061019e600480360381019080803590602001909291905050506105d2565b604051808215151515815260200191505060405180910390f35b3480156101c457600080fd5b506101e360048036038101908080359060200190929190505050610644565b6040518082815260200191505060405180910390f35b60008060149054906101000a900460ff16905090565b6000809054906101000a900473ffffffffffffffffffffffffffffffffffffffff1673ffffffffffffffffffffffffffffffffffffffff163373ffffffffffffffffffffffffffffffffffffffff161415156102f9576040517f08c379a00000000000000000000000000000000000000000000000000000000081526004018080602001828103825260228152602001807f4f776e6572736869703a2063616c6c6572206973206e6f7420746865206f776e81526020017f657200000000000000000000000000000000000000000000000000000000000081525060400191505060405180910390fd5b60008060146101000a81548160ff021916908315150217905550565b6000809054906101000a900473ffffffffffffffffffffffffffffffffffffffff1673ffffffffffffffffffffffffffffffffffffffff163373ffffffffffffffffffffffffffffffffffffffff161415156103ff576040517f08c379a00000000000000000000000000000000000000000000000000000000081526004018080602001828103825260228152602001807f4f776e6572736869703a2063616c6c6572206973206e6f7420746865206f776e81526020017f657200000000000000000000000000000000000000000000000000000000000081525060400191505060405180910390fd5b6001600060146101000a81548160ff021916908315150217905550565b6000809054906101000a900473ffffffffffffffffffffffffffffffffffffffff1673ffffffffffffffffffffffffffffffffffffffff163373ffffffffffffffffffffffffffffffffffffffff16141515610506576040517f08c379a00000000000000000000000000000000000000000000000000000000081526004018080602001828103825260228152602001807f4f776e6572736869703a2063616c6c6572206973206e6f7420746865206f776e81526020017f657200000000000000000000000000000000000000000000000000000000000081525060400191505060405180910390fd5b60011515600060149054906101000a900460ff161515141515610591576040517f08c379a000000000000000000000000000000000000000000000000000000000815260040180806020018281038252601c8152602001807f4f7261636c652069732063757272656e746c79206f66666c696e65210000000081525060200191505060405180910390fd5b8060016000848152602001908152602001600020819055505050565b6000809054906101000a900473ffffffffffffffffffffffffffffffffffffffff1681565b60007f4e706413d2040a71aaa4d6f4811cb20f96c79fc37c7ab3a5da350f9502ac49353383604051808373ffffffffffffffffffffffffffffffffffffffff1673ffffffffffffffffffffffffffffffffffffffff1681526020018281526020019250505060405180910390a1919050565b600060011515600060149054906101000a900460ff1615151415156106d1576040517f08c379a000000000000000000000000000000000000000000000000000000000815260040180806020018281038252601c8152602001807f4f7261636c652069732063757272656e746c79206f66666c696e65210000000081525060200191505060405180910390fd5b600160008381526020019081526020016000205490509190505600a165627a7a72305820353ba80119961eeaa176c8877bcae2a047ec80ed6317bf050f72b38b8fb766ca0029",
  "source": "pragma solidity ^0.4.24;\n\ncontract CoinMarketOracle {\n\n  address public _owner;\n  bool internal _online;\n\n  mapping (uint => uint ) private CoinMarketCap;\n\n  modifier onlyOwner(){\n    require(msg.sender == _owner, \"Ownership: caller is not the owner\");\n    _;\n  }\n\n  modifier isOnline() {\n    require(_online == true, 'Oracle is currently offline!');\n    _;\n  }\n\n  event CoinMarketUpdateRequest(address requestBy, uint capId);\n\n  constructor() public {\n      _owner = msg.sender;\n      _online = true;\n  }\n\n  function getStatus() public view returns(bool) {\n      return _online;\n  }\n  function setOnline() public onlyOwner {\n      _online = true;\n  }\n\n  function setOffline() public onlyOwner {\n      _online = false;\n  }\n\n\n  function setCapValue(uint capId, uint capValue) public onlyOwner isOnline {\n    CoinMarketCap[capId] = capValue;\n  }\n\n  function getCapVaule(uint capId) public view isOnline returns (uint) {\n    return CoinMarketCap[capId];\n  }\n\n  function updateCoinMarket(uint capId) public returns(bool) {\n    // emit update request event\n    emit CoinMarketUpdateRequest(msg.sender,capId);\n  }\n\n}\n",
  "sourcePath": "/Users/jamshed/Development/gbc/ADVANCED SMART CONTRACTS - BCDV 1013 - 100/gbc_bcdv1013_asc_finalassignment/contracts/CoinMarketOracle.sol",
  "compiler": {
    "name": "solc",
    "version": "0.4.24+commit.e67f0147.Emscripten.clang"
  },
  "schemaVersion": "3.0.23",
  "updatedAt": "2020-03-30T04:46:33.708Z",
  "devdoc": {
    "methods": {}
  },
  "userdoc": {
    "methods": {}
  }
}